{
  "contractName": "CommitmentLandRegistry",
  "abi": [
    {
      "inputs": [],
      "stateMutability": "nonpayable",
      "type": "constructor"
    },
    {
      "anonymous": false,
      "inputs": [
        {
          "indexed": true,
          "internalType": "uint256",
          "name": "parcelId",
          "type": "uint256"
        },
        {
          "indexed": true,
          "internalType": "bytes32",
          "name": "commitment",
          "type": "bytes32"
        },
        {
          "indexed": false,
          "internalType": "bytes32",
          "name": "ipfsCidHash",
          "type": "bytes32"
        },
        {
          "indexed": false,
          "internalType": "uint256",
          "name": "parentId",
          "type": "uint256"
        },
        {
          "indexed": false,
          "internalType": "uint256",
          "name": "timestamp",
          "type": "uint256"
        }
      ],
      "name": "CommitmentRegistered",
      "type": "event"
    },
    {
      "anonymous": false,
      "inputs": [
        {
          "indexed": true,
          "internalType": "uint256",
          "name": "parcelId",
          "type": "uint256"
        },
        {
          "indexed": true,
          "internalType": "bytes32",
          "name": "commitment",
          "type": "bytes32"
        },
        {
          "indexed": false,
          "internalType": "uint256",
          "name": "timestamp",
          "type": "uint256"
        }
      ],
      "name": "CommitmentRevoked",
      "type": "event"
    },
    {
      "anonymous": false,
      "inputs": [
        {
          "indexed": true,
          "internalType": "uint256",
          "name": "parcelId",
          "type": "uint256"
        },
        {
          "indexed": true,
          "internalType": "bytes32",
          "name": "oldCommitment",
          "type": "bytes32"
        },
        {
          "indexed": true,
          "internalType": "bytes32",
          "name": "newCommitment",
          "type": "bytes32"
        },
        {
          "indexed": false,
          "internalType": "bytes32",
          "name": "newIpfsCidHash",
          "type": "bytes32"
        },
        {
          "indexed": false,
          "internalType": "uint256",
          "name": "timestamp",
          "type": "uint256"
        }
      ],
      "name": "CommitmentUpdated",
      "type": "event"
    },
    {
      "anonymous": false,
      "inputs": [
        {
          "indexed": true,
          "internalType": "bytes32",
          "name": "nullifier",
          "type": "bytes32"
        },
        {
          "indexed": false,
          "internalType": "uint256",
          "name": "timestamp",
          "type": "uint256"
        }
      ],
      "name": "NullifierPublished",
      "type": "event"
    },
    {
      "anonymous": false,
      "inputs": [
        {
          "indexed": true,
          "internalType": "address",
          "name": "previousOwner",
          "type": "address"
        },
        {
          "indexed": true,
          "internalType": "address",
          "name": "newOwner",
          "type": "address"
        }
      ],
      "name": "OwnershipTransferred",
      "type": "event"
    },
    {
      "anonymous": false,
      "inputs": [
        {
          "indexed": true,
          "internalType": "address",
          "name": "newAuthority",
          "type": "address"
        }
      ],
      "name": "RegistrationAuthorityChanged",
      "type": "event"
    },
    {
      "inputs": [
        {
          "internalType": "bytes32",
          "name": "",
          "type": "bytes32"
        }
      ],
      "name": "commitmentToParcel",
      "outputs": [
        {
          "internalType": "uint256",
          "name": "",
          "type": "uint256"
        }
      ],
      "stateMutability": "view",
      "type": "function",
      "constant": true
    },
    {
      "inputs": [
        {
          "internalType": "bytes32",
          "name": "",
          "type": "bytes32"
        }
      ],
      "name": "nullified",
      "outputs": [
        {
          "internalType": "bool",
          "name": "",
          "type": "bool"
        }
      ],
      "stateMutability": "view",
      "type": "function",
      "constant": true
    },
    {
      "inputs": [],
      "name": "owner",
      "outputs": [
        {
          "internalType": "address",
          "name": "",
          "type": "address"
        }
      ],
      "stateMutability": "view",
      "type": "function",
      "constant": true
    },
    {
      "inputs": [
        {
          "internalType": "uint256",
          "name": "",
          "type": "uint256"
        }
      ],
      "name": "parcels",
      "outputs": [
        {
          "internalType": "uint256",
          "name": "parcelId",
          "type": "uint256"
        },
        {
          "internalType": "bytes32",
          "name": "commitment",
          "type": "bytes32"
        },
        {
          "internalType": "bytes32",
          "name": "ipfsCidHash",
          "type": "bytes32"
        },
        {
          "internalType": "uint256",
          "name": "parentId",
          "type": "uint256"
        },
        {
          "internalType": "bool",
          "name": "active",
          "type": "bool"
        }
      ],
      "stateMutability": "view",
      "type": "function",
      "constant": true
    },
    {
      "inputs": [],
      "name": "registrationAuthority",
      "outputs": [
        {
          "internalType": "address",
          "name": "",
          "type": "address"
        }
      ],
      "stateMutability": "view",
      "type": "function",
      "constant": true
    },
    {
      "inputs": [],
      "name": "renounceOwnership",
      "outputs": [],
      "stateMutability": "nonpayable",
      "type": "function"
    },
    {
      "inputs": [
        {
          "internalType": "address",
          "name": "newOwner",
          "type": "address"
        }
      ],
      "name": "transferOwnership",
      "outputs": [],
      "stateMutability": "nonpayable",
      "type": "function"
    },
    {
      "inputs": [
        {
          "internalType": "address",
          "name": "_newAuthority",
          "type": "address"
        }
      ],
      "name": "setRegistrationAuthority",
      "outputs": [],
      "stateMutability": "nonpayable",
      "type": "function"
    },
    {
      "inputs": [
        {
          "internalType": "uint256",
          "name": "parcelId",
          "type": "uint256"
        },
        {
          "internalType": "bytes32",
          "name": "commitment",
          "type": "bytes32"
        },
        {
          "internalType": "bytes32",
          "name": "ipfsCidHash",
          "type": "bytes32"
        },
        {
          "internalType": "uint256",
          "name": "parentId",
          "type": "uint256"
        }
      ],
      "name": "registerCommitment",
      "outputs": [],
      "stateMutability": "nonpayable",
      "type": "function"
    },
    {
      "inputs": [
        {
          "internalType": "uint256",
          "name": "parcelId",
          "type": "uint256"
        },
        {
          "internalType": "bytes32",
          "name": "oldCommitment",
          "type": "bytes32"
        },
        {
          "internalType": "bytes32",
          "name": "newCommitment",
          "type": "bytes32"
        },
        {
          "internalType": "bytes32",
          "name": "newIpfsCidHash",
          "type": "bytes32"
        },
        {
          "internalType": "bytes32",
          "name": "nullifierForOld",
          "type": "bytes32"
        }
      ],
      "name": "approveTransfer",
      "outputs": [],
      "stateMutability": "nonpayable",
      "type": "function"
    },
    {
      "inputs": [
        {
          "internalType": "uint256",
          "name": "parentParcelId",
          "type": "uint256"
        },
        {
          "internalType": "uint256[]",
          "name": "newParcelIds",
          "type": "uint256[]"
        },
        {
          "internalType": "bytes32[]",
          "name": "newCommitments",
          "type": "bytes32[]"
        },
        {
          "internalType": "bytes32[]",
          "name": "newIpfsCidHashes",
          "type": "bytes32[]"
        },
        {
          "internalType": "bytes32",
          "name": "nullifierForParent",
          "type": "bytes32"
        }
      ],
      "name": "approveSplit",
      "outputs": [],
      "stateMutability": "nonpayable",
      "type": "function"
    },
    {
      "inputs": [
        {
          "internalType": "uint256",
          "name": "parcelId",
          "type": "uint256"
        }
      ],
      "name": "revokeParcel",
      "outputs": [],
      "stateMutability": "nonpayable",
      "type": "function"
    },
    {
      "inputs": [
        {
          "internalType": "uint256",
          "name": "parcelId",
          "type": "uint256"
        }
      ],
      "name": "getParcel",
      "outputs": [
        {
          "internalType": "uint256",
          "name": "",
          "type": "uint256"
        },
        {
          "internalType": "bytes32",
          "name": "",
          "type": "bytes32"
        },
        {
          "internalType": "bytes32",
          "name": "",
          "type": "bytes32"
        },
        {
          "internalType": "uint256",
          "name": "",
          "type": "uint256"
        },
        {
          "internalType": "bool",
          "name": "",
          "type": "bool"
        }
      ],
      "stateMutability": "view",
      "type": "function",
      "constant": true
    },
    {
      "inputs": [
        {
          "internalType": "bytes32",
          "name": "commitment",
          "type": "bytes32"
        }
      ],
      "name": "getParcelIdByCommitment",
      "outputs": [
        {
          "internalType": "uint256",
          "name": "",
          "type": "uint256"
        }
      ],
      "stateMutability": "view",
      "type": "function",
      "constant": true
    },
    {
      "inputs": [
        {
          "internalType": "bytes32",
          "name": "nullifier",
          "type": "bytes32"
        }
      ],
      "name": "isNullified",
      "outputs": [
        {
          "internalType": "bool",
          "name": "",
          "type": "bool"
        }
      ],
      "stateMutability": "view",
      "type": "function",
      "constant": true
    }
  ],
  "bytecode": "0x608060405234801561001057600080fd5b5061001a33610071565b600180546001600160a01b03191673ba90f7aaa05bd84e7746dda4a3d98da07365e2a69081179091556040517f7987bf7d8af33a269189f378850a321cde92a84013a1859e3b794f66d6b52c7190600090a26100c1565b600080546001600160a01b038381166001600160a01b0319831681178455604051919092169283917f8be0079c531659141344cd1fd0a4f28419497f9722a3daafe3b4186f6b6457e09190a35050565b6111b6806100d06000396000f3fe608060405234801561001057600080fd5b50600436106100f55760003560e01c8063826fd98111610097578063cec91d9d11610066578063cec91d9d146102c6578063e73bdb5e146102e6578063e757d9b014610309578063f2fde38b1461031c57600080fd5b8063826fd9811461024f5780638cb70ce1146102625780638da5cb5b14610275578063a0fa8ede1461028657600080fd5b8063338b671c116100d3578063338b671c146101725780634d0434f2146101a0578063715018a614610234578063793966801461023c57600080fd5b8063169394bb146100fa5780631bccc835146101325780631d74c14b14610147575b600080fd5b61011d610108366004610f68565b60009081526004602052604090205460ff1690565b60405190151581526020015b60405180910390f35b610145610140366004610f81565b61032f565b005b60015461015a906001600160a01b031681565b6040516001600160a01b039091168152602001610129565b610192610180366004610f68565b60036020526000908152604090205481565b604051908152602001610129565b61020a6101ae366004610f68565b600090815260026020818152604092839020835160a081018552815480825260018301549382018490529382015494810185905260038201546060820181905260049092015460ff161515608090910181905292949193929091565b6040805195865260208601949094529284019190915260608301521515608082015260a001610129565b610145610567565b61014561024a366004610fb3565b61057b565b61014561025d36600461103a565b61087e565b610145610270366004610f68565b610b36565b6000546001600160a01b031661015a565b61020a610294366004610f68565b600260208190526000918252604090912080546001820154928201546003830154600490930154919392909160ff1685565b6101926102d4366004610f68565b60009081526003602052604090205490565b61011d6102f4366004610f68565b60046020526000908152604090205460ff1681565b6101456103173660046110e5565b610c70565b61014561032a3660046110e5565b610d18565b6001546001600160a01b031633146103625760405162461bcd60e51b815260040161035990611115565b60405180910390fd5b836000036103b25760405162461bcd60e51b815260206004820152601760248201527f70617263656c49642063616e6e6f74206265207a65726f0000000000000000006044820152606401610359565b826103f45760405162461bcd60e51b81526020600482015260126024820152711a5b9d985b1a590818dbdb5b5a5d1b595b9d60721b6044820152606401610359565b600083815260036020526040902054156104505760405162461bcd60e51b815260206004820152601d60248201527f636f6d6d69746d656e7420616c726561647920726567697374657265640000006044820152606401610359565b600084815260026020526040902054156104a45760405162461bcd60e51b81526020600482015260156024820152741c185c98d95b125908185b1c9958591e481d5cd959605a1b6044820152606401610359565b6040805160a0810182528581526020808201868152828401868152606080850187815260016080870181815260008d815260028089528a822099518a559651928901929092559351948701949094555160038087019190915591516004909501805460ff191695151595909517909455878252825283902087905582518581529081018490524292810192909252849186917fcf2f7c953f66a4db4a01518134ce6d47c91d8975ecb7b22b7c338a8d66c64b90910160405180910390a350505050565b61056f610d91565b6105796000610deb565b565b6001546001600160a01b031633146105a55760405162461bcd60e51b815260040161035990611115565b846000036105e85760405162461bcd60e51b815260206004820152601060248201526f1a5b9d985b1a59081c185c98d95b125960821b6044820152606401610359565b600085815260026020526040902080541580159061060a5750600481015460ff165b6106505760405162461bcd60e51b81526020600482015260176024820152761c185c98d95b081b9bdd081858dd1a5d994bd95e1a5cdd604a1b6044820152606401610359565b848160010154146106a35760405162461bcd60e51b815260206004820152601760248201527f6f6c6420636f6d6d69746d656e74206d69736d617463680000000000000000006044820152606401610359565b836106e95760405162461bcd60e51b81526020600482015260166024820152751a5b9d985b1a59081b995dc818dbdb5b5a5d1b595b9d60521b6044820152606401610359565b600084815260036020526040902054156107455760405162461bcd60e51b815260206004820152601b60248201527f6e657720636f6d6d69746d656e7420616c7265616479207573656400000000006044820152606401610359565b81156108005760008281526004602052604090205460ff16156107aa5760405162461bcd60e51b815260206004820152601b60248201527f6e756c6c696669657220616c7265616479207075626c697368656400000000006044820152606401610359565b60008281526004602052604090819020805460ff191660011790555182907f32f37a8772f22b168f801d87b39aa58c284c33641bd0d444c18e494233ee85e4906107f79042815260200190565b60405180910390a25b60008581526003602052604080822082905585825290819020879055600182018054908690556002830185905590518590829089907fb786b48f9f3f25a870dd03ad653fdc5e4ea05ade7b82be863e2ed128f641cc099061086d9089904290918252602082015260400190565b60405180910390a450505050505050565b6001546001600160a01b031633146108a85760405162461bcd60e51b815260040161035990611115565b876000036108ec5760405162461bcd60e51b81526020600482015260116024820152701a5b9d985b1a59081c185c995b9d081a59607a1b6044820152606401610359565b600088815260026020526040902080541580159061090e5750600481015460ff165b61095a5760405162461bcd60e51b815260206004820152601760248201527f706172656e74206e6f74206163746976652f65786973740000000000000000006044820152606401610359565b868061099f5760405162461bcd60e51b81526020600482015260146024820152731b9bc818da1a5b191c995b881c1c9bdd9a59195960621b6044820152606401610359565b80861480156109ad57508084145b6109f15760405162461bcd60e51b81526020600482015260156024820152740c2e4e4c2f240d8cadccee8d040dad2e6dac2e8c6d605b1b6044820152606401610359565b8215610aac5760008381526004602052604090205460ff1615610a565760405162461bcd60e51b815260206004820152601b60248201527f6e756c6c696669657220616c7265616479207075626c697368656400000000006044820152606401610359565b60008381526004602052604090819020805460ff191660011790555183907f32f37a8772f22b168f801d87b39aa58c284c33641bd0d444c18e494233ee85e490610aa39042815260200190565b60405180910390a25b60048201805460ff1916905560005b81811015610b2957610b178a8a83818110610ad857610ad8611143565b90506020020135898984818110610af157610af1611143565b90506020020135888885818110610b0a57610b0a611143565b905060200201358e610e3b565b80610b2181611159565b915050610abb565b5050505050505050505050565b6001546001600160a01b03163314610b605760405162461bcd60e51b815260040161035990611115565b80600003610ba35760405162461bcd60e51b815260206004820152601060248201526f1a5b9d985b1a59081c185c98d95b125960821b6044820152606401610359565b6000818152600260205260409020805415801590610bc55750600481015460ff165b610c0b5760405162461bcd60e51b81526020600482015260176024820152761c185c98d95b081b9bdd081858dd1a5d994bd95e1a5cdd604a1b6044820152606401610359565b600181015460048201805460ff191690556000818152600360205260408082209190915551819084907fb06811453e01ec3dd448bdd12b83fd2d1c3507ccba652e424e00d14a44d0773090610c639042815260200190565b60405180910390a3505050565b610c78610d91565b6001600160a01b038116610cce5760405162461bcd60e51b815260206004820152601960248201527f52412063616e6e6f74206265207a65726f2061646472657373000000000000006044820152606401610359565b600180546001600160a01b0319166001600160a01b0383169081179091556040517f7987bf7d8af33a269189f378850a321cde92a84013a1859e3b794f66d6b52c7190600090a250565b610d20610d91565b6001600160a01b038116610d855760405162461bcd60e51b815260206004820152602660248201527f4f776e61626c653a206e6577206f776e657220697320746865207a65726f206160448201526564647265737360d01b6064820152608401610359565b610d8e81610deb565b50565b6000546001600160a01b031633146105795760405162461bcd60e51b815260206004820181905260248201527f4f776e61626c653a2063616c6c6572206973206e6f7420746865206f776e65726044820152606401610359565b600080546001600160a01b038381166001600160a01b0319831681178455604051919092169283917f8be0079c531659141344cd1fd0a4f28419497f9722a3daafe3b4186f6b6457e09190a35050565b83600003610e7b5760405162461bcd60e51b815260206004820152600d60248201526c6368696c64206964207a65726f60981b6044820152606401610359565b60008481526002602052604090205415610ecf5760405162461bcd60e51b815260206004820152601560248201527418da1a5b19081a5908185b1c9958591e481d5cd959605a1b6044820152606401610359565b82610f145760405162461bcd60e51b81526020600482015260156024820152746368696c6420636f6d6d69746d656e74207a65726f60581b6044820152606401610359565b600083815260036020526040902054156104a45760405162461bcd60e51b815260206004820152601560248201527418da1a5b190818dbdb5b5a5d1b595b9d081d5cd959605a1b6044820152606401610359565b600060208284031215610f7a57600080fd5b5035919050565b60008060008060808587031215610f9757600080fd5b5050823594602084013594506040840135936060013592509050565b600080600080600060a08688031215610fcb57600080fd5b505083359560208501359550604085013594606081013594506080013592509050565b60008083601f84011261100057600080fd5b50813567ffffffffffffffff81111561101857600080fd5b6020830191508360208260051b850101111561103357600080fd5b9250929050565b60008060008060008060008060a0898b03121561105657600080fd5b88359750602089013567ffffffffffffffff8082111561107557600080fd5b6110818c838d01610fee565b909950975060408b013591508082111561109a57600080fd5b6110a68c838d01610fee565b909750955060608b01359150808211156110bf57600080fd5b506110cc8b828c01610fee565b999c989b50969995989497949560800135949350505050565b6000602082840312156110f757600080fd5b81356001600160a01b038116811461110e57600080fd5b9392505050565b60208082526014908201527343616c6c6572206973206e6f742074686520524160601b604082015260600190565b634e487b7160e01b600052603260045260246000fd5b60006001820161117957634e487b7160e01b600052601160045260246000fd5b506001019056fea2646970667358221220b6e8853781d5e11cae2daf2d4d7533b82753dca0d6d23094e58833e2974f328e64736f6c63430008130033",
  "immutableReferences": {},
  "source": "// SPDX-License-Identifier: MIT\npragma solidity ^0.8.19;\n\nimport \"@openzeppelin/contracts/access/Ownable.sol\";\n\n/// @title CommitmentLandRegistry\n/// @notice A privacy-first on-chain registry using the Ownable pattern for access control.\n/// @dev The contract 'owner' is the super admin, while a separate 'registrationAuthority' handles daily operations.\ncontract CommitmentLandRegistry is Ownable {\n    \n    // --- STATE ---\n    address public registrationAuthority;\n    \n\n    struct Parcel {\n        uint256 parcelId;\n        bytes32 commitment;\n        bytes32 ipfsCidHash;\n        uint256 parentId;\n        bool active;\n    }\n\n    mapping(uint256 => Parcel) public parcels;\n    mapping(bytes32 => uint256) public commitmentToParcel;\n    mapping(bytes32 => bool) public nullified;\n\n    // --- EVENTS ---\n    event CommitmentRegistered(uint256 indexed parcelId, bytes32 indexed commitment, bytes32 ipfsCidHash, uint256 parentId, uint256 timestamp);\n    event CommitmentUpdated(uint256 indexed parcelId, bytes32 indexed oldCommitment, bytes32 indexed newCommitment, bytes32 newIpfsCidHash, uint256 timestamp);\n    event CommitmentRevoked(uint256 indexed parcelId, bytes32 indexed commitment, uint256 timestamp);\n    event NullifierPublished(bytes32 indexed nullifier, uint256 timestamp);\n    event RegistrationAuthorityChanged(address indexed newAuthority);\n\n    // --- MODIFIERS ---\n    modifier onlyRA() {\n        require(msg.sender == registrationAuthority, \"Caller is not the RA\");\n        _;\n    }\n\n    // --- CONSTRUCTOR (Updated for OpenZeppelin v4.x) ---\n    constructor() {\n        // In OpenZeppelin v4.x, the deployer automatically becomes the owner\n        // No need to pass parameters to Ownable()\n        registrationAuthority = 0xbA90f7aaA05Bd84e7746dda4A3d98da07365e2A6; // <-- PUT THE ADDRESS HERE\n        emit RegistrationAuthorityChanged(registrationAuthority);\n    }\n\n    // ============================\n    // ===  MANAGEMENT FUNCTIONS ===\n    // ============================\n\n    /// @notice Sets or changes the Registration Authority address.\n    /// @dev Can only be called by the contract owner (the Admin).\n    function setRegistrationAuthority(address _newAuthority) external onlyOwner {\n        require(_newAuthority != address(0), \"RA cannot be zero address\");\n        registrationAuthority = _newAuthority;\n        emit RegistrationAuthorityChanged(_newAuthority);\n    }\n\n    // ============================\n    // === RA-Only Operations  ====\n    // ============================\n\n    /// @notice Register a new parcel commitment (initial registration).\n    function registerCommitment(\n        uint256 parcelId,\n        bytes32 commitment,\n        bytes32 ipfsCidHash,\n        uint256 parentId\n    ) external onlyRA {\n        require(parcelId != 0, \"parcelId cannot be zero\");\n        require(commitment != bytes32(0), \"invalid commitment\");\n        require(commitmentToParcel[commitment] == 0, \"commitment already registered\");\n        require(parcels[parcelId].parcelId == 0, \"parcelId already used\");\n\n        parcels[parcelId] = Parcel({\n            parcelId: parcelId,\n            commitment: commitment,\n            ipfsCidHash: ipfsCidHash,\n            parentId: parentId,\n            active: true\n        });\n\n        commitmentToParcel[commitment] = parcelId;\n        emit CommitmentRegistered(parcelId, commitment, ipfsCidHash, parentId, block.timestamp);\n    }\n\n    /// @notice Approve and perform a transfer: replace old commitment with new commitment for same parcelId.\n    function approveTransfer(\n        uint256 parcelId,\n        bytes32 oldCommitment,\n        bytes32 newCommitment,\n        bytes32 newIpfsCidHash,\n        bytes32 nullifierForOld\n    ) external onlyRA {\n        require(parcelId != 0, \"invalid parcelId\");\n        Parcel storage p = parcels[parcelId];\n        require(p.parcelId != 0 && p.active, \"parcel not active/exist\");\n        require(p.commitment == oldCommitment, \"old commitment mismatch\");\n        require(newCommitment != bytes32(0), \"invalid new commitment\");\n        require(commitmentToParcel[newCommitment] == 0, \"new commitment already used\");\n\n        if (nullifierForOld != bytes32(0)) {\n            require(!nullified[nullifierForOld], \"nullifier already published\");\n            nullified[nullifierForOld] = true;\n            emit NullifierPublished(nullifierForOld, block.timestamp);\n        }\n\n        commitmentToParcel[oldCommitment] = 0;\n        commitmentToParcel[newCommitment] = parcelId;\n\n        bytes32 old = p.commitment;\n        p.commitment = newCommitment;\n        p.ipfsCidHash = newIpfsCidHash;\n\n        emit CommitmentUpdated(parcelId, old, newCommitment, newIpfsCidHash, block.timestamp);\n    }\n\n    /// @notice Approve and perform split: mark parent inactive and register N child commitments.\n    function approveSplit(\n        uint256 parentParcelId,\n        uint256[] calldata newParcelIds,\n        bytes32[] calldata newCommitments,\n        bytes32[] calldata newIpfsCidHashes,\n        bytes32 nullifierForParent\n    ) external onlyRA {\n        require(parentParcelId != 0, \"invalid parent id\");\n        Parcel storage parent = parcels[parentParcelId];\n        require(parent.parcelId != 0 && parent.active, \"parent not active/exist\");\n\n        uint256 n = newParcelIds.length;\n        require(n > 0, \"no children provided\");\n        require(n == newCommitments.length && n == newIpfsCidHashes.length, \"array length mismatch\");\n\n        if (nullifierForParent != bytes32(0)) {\n            require(!nullified[nullifierForParent], \"nullifier already published\");\n            nullified[nullifierForParent] = true;\n            emit NullifierPublished(nullifierForParent, block.timestamp);\n        }\n\n        parent.active = false;\n        \n        for (uint256 i = 0; i < n; i++) {\n            _registerChildParcel(newParcelIds[i], newCommitments[i], newIpfsCidHashes[i], parentParcelId);\n        }\n    }\n\n    /// @notice Revoke a parcel (e.g., cancel or deprecate). RA-only.\n    function revokeParcel(uint256 parcelId) external onlyRA {\n        require(parcelId != 0, \"invalid parcelId\");\n        Parcel storage p = parcels[parcelId];\n        require(p.parcelId != 0 && p.active, \"parcel not active/exist\");\n\n        bytes32 comm = p.commitment;\n        p.active = false;\n        commitmentToParcel[comm] = 0;\n\n        emit CommitmentRevoked(parcelId, comm, block.timestamp);\n    }\n\n    // ============================\n    // === Internal functions  ====\n    // ============================\n\n    function _registerChildParcel(\n        uint256 childId,\n        bytes32 childCommit,\n        bytes32 childCidHash,\n        uint256 parentParcelId\n    ) internal {\n        require(childId != 0, \"child id zero\");\n        require(parcels[childId].parcelId == 0, \"child id already used\");\n        require(childCommit != bytes32(0), \"child commitment zero\");\n        require(commitmentToParcel[childCommit] == 0, \"child commitment used\");\n\n        parcels[childId] = Parcel({\n            parcelId: childId,\n            commitment: childCommit,\n            ipfsCidHash: childCidHash,\n            parentId: parentParcelId,\n            active: true\n        });\n\n        commitmentToParcel[childCommit] = childId;\n        emit CommitmentRegistered(childId, childCommit, childCidHash, parentParcelId, block.timestamp);\n    }\n\n    // ============================\n    // ===== View functions  =====\n    // ============================\n\n    function getParcel(uint256 parcelId) external view returns (uint256, bytes32, bytes32, uint256, bool) {\n        Parcel memory p = parcels[parcelId];\n        return (p.parcelId, p.commitment, p.ipfsCidHash, p.parentId, p.active);\n    }\n\n    function getParcelIdByCommitment(bytes32 commitment) external view returns (uint256) {\n        return commitmentToParcel[commitment];\n    }\n\n    function isNullified(bytes32 nullifier) external view returns (bool) {\n        return nullified[nullifier];\n    }\n}\n",
  "sourcePath": "/home/vasan/Desktop/blockchain-based-cadastral-system-main/blockchain/contracts/CommitmentLandRegistry.sol",
  "compiler": {
    "name": "solc",
    "version": "0.8.19+commit.7dd6d404.Emscripten.clang"
  },
  "schemaVersion": "3.4.16",
  "updatedAt": "2025-11-06T07:17:23.839Z",
  "networkType": "ethereum",
  "devdoc": {
    "details": "The contract 'owner' is the super admin, while a separate 'registrationAuthority' handles daily operations.",
    "kind": "dev",
    "methods": {
      "owner()": {
        "details": "Returns the address of the current owner."
      },
      "renounceOwnership()": {
        "details": "Leaves the contract without owner. It will not be possible to call `onlyOwner` functions. Can only be called by the current owner. NOTE: Renouncing ownership will leave the contract without an owner, thereby disabling any functionality that is only available to the owner."
      },
      "setRegistrationAuthority(address)": {
        "details": "Can only be called by the contract owner (the Admin)."
      },
      "transferOwnership(address)": {
        "details": "Transfers ownership of the contract to a new account (`newOwner`). Can only be called by the current owner."
      }
    },
    "title": "CommitmentLandRegistry",
    "version": 1
  },
  "userdoc": {
    "kind": "user",
    "methods": {
      "approveSplit(uint256,uint256[],bytes32[],bytes32[],bytes32)": {
        "notice": "Approve and perform split: mark parent inactive and register N child commitments."
      },
      "approveTransfer(uint256,bytes32,bytes32,bytes32,bytes32)": {
        "notice": "Approve and perform a transfer: replace old commitment with new commitment for same parcelId."
      },
      "registerCommitment(uint256,bytes32,bytes32,uint256)": {
        "notice": "Register a new parcel commitment (initial registration)."
      },
      "revokeParcel(uint256)": {
        "notice": "Revoke a parcel (e.g., cancel or deprecate). RA-only."
      },
      "setRegistrationAuthority(address)": {
        "notice": "Sets or changes the Registration Authority address."
      }
    },
    "notice": "A privacy-first on-chain registry using the Ownable pattern for access control.",
    "version": 1
  }
}